:1000000002C100002EC100002CC100002AC1000066
:1000100028C1000026C1000024C1000022C1000048
:1000200020C100001EC100001CC100001AC1000058
:1000300018C1000016C1000014C1000012C1000068
:1000400010C100000EC100000CC100000AC1000078
:1000500008C1000006C1000004C1000055C3000033
:1000600000C10000C4C3000099C30000FAC0000032
:10007000F8C00000F6C00000F4C00000F2C00000AC
:10008000F0C00000EEC00000ECC00000EAC00000BC
:10009000E8C00000E6C00000E4C00000E2C00000CC
:1000A000E0C00000DEC00000DCC00000DAC00000DC
:1000B000D8C00000D6C00000D4C00000D2C00000EC
:1000C000D0C00000CEC00000CCC00000CAC00000FC
:1000D000C8C00000C6C00000C4C00000C2C000000C
:1000E000C0C0000000002100240027002A002D00CD
:1000F0003000330001010000040107010A01000083
:1001000020002300260029002C002F0032000001CF
:10011000000003010601090100002200250028005B
:100120002B002E00310034000201000005010801FF
:100130000B0105050505070508080808020202026B
:100140000A0A080804040404010101010101010173
:100150000303030303030303040707070C0C0C0C3E
:100160000C0C0C0C02020202060606060606060627
:100170000B0B0B0B0B0B0B0B0102102020080810B4
:100180002040102040800201020108040201010207
:1001900004081020408080402010080402018004E0
:1001A000020180402010080402010804020101023B
:1001B0000408102040800102040810204080000044
:1001C0000A0B02090C0D0E080703040100000000D1
:1001D000000000000000000000000000000000001F
:1001E00000000000000000000000121110000000DC
:1001F00000000000000000000000000000000000FF
:1002000000000000960511241FBECFEFD1E2DEBF33
:10021000CDBF00E00CBF12E0A0E0B2E0EEEDFBE0ED
:1002200000E00BBF02C007900D92A233B107D9F7CF
:1002300022E0A2E3B2E001C01D92AB3DB207E1F7BC
:1002400011E0C3E0D1E000E005C021970109802F53
:10025000FE01BBD4C230D10780E00807B1F7FDD260
:10026000BCC4CECE8150823108F059C0E82FF0E0F6
:100270008827E35CFE4F8F4FA8C45D0161014F01E9
:10028000550159018F0164016A016E017401780101
:100290007C01820186018F018A0190019401809185
:1002A00080008F77809380000895809180008F7DFB
:1002B000F9CF80918000877FF5CF84B58F7784BD9B
:1002C000089584B58F7DFBCF8091B0008F778093A8
:1002D000B00008958091B0008F7DF9CF809190009B
:1002E0008F77809390000895809190008F7DF9CF53
:1002F00080919000877FF5CF8091A0008F778093C9
:10030000A00008958091A0008F7DF9CF8091A0007A
:10031000877FF5CF809120018F778093200108950A
:10032000809120018F7DF9CF80912001877FF5CFCB
:100330001F93CF93DF93EBECF1E09491E5E8F1E0CC
:10034000D491EFE3F1E0C491CC23B1F0182F9923BD
:1003500011F0892F87DFEC2FF0E0EE0FFF1FE85E32
:10036000FE4FA591B4918FB7F894EC91111108C08C
:10037000D095DE23DC938FBFDF91CF911F9108953D
:10038000DE2BF8CF3FB7F89480913A0290913B0270
:10039000A0913C02B0913D0226B5A89B05C02F3F1D
:1003A00019F00196A11DB11D3FBFBA2FA92F982F9B
:1003B0008827BC01CD01620F711D811D911D42E096
:1003C000660F771F881F991F4A95D1F70895AF923E
:1003D000BF92CF92DF92EF92FF920F931F93CF9332
:1003E000DF936C017B018B01040F151FEB015E0194
:1003F000AE18BF08C017D10759F06991D601ED9129
:10040000FC910190F081E02DC6011995892B79F7B7
:10041000C501DF91CF911F910F91FF90EF90DF9079
:10042000CF90BF90AF900895FC01538D448D252F40
:1004300030E0842F90E0821B930B541710F0CF967E
:10044000089501970895FC01918D828D981761F0B0
:10045000A28DAE0FBF2FB11D5D968C91928D9F5FC7
:100460009F73928F90E008958FEF9FEF0895FC01A6
:10047000918D828D981731F0828DE80FF11D858D59
:1004800090E008958FEF9FEF0895FC01918D228DEC
:10049000892F90E0805C9F4F821B91098F73992771
:1004A00008958EE392E0F1DF21E0892B09F420E04A
:1004B000822F0895FC01A48DA80FB92FB11DA35A56
:1004C000BF4F2C91848D90E001968F739927848F74
:1004D000A689B7892C93A089B1898C918370806497
:1004E0008C93938D848D981306C00288F389E02D38
:1004F00080818F7D80830895EF92FF920F931F93E9
:10050000CF93DF93EC0181E0888F9B8D8C8D9813C6
:100510001AC0E889F989808185FF15C09FB7F894D2
:10052000EE89FF896083E889F9898081837080641E
:1005300080839FBF81E090E0DF91CF911F910F9169
:10054000FF90EF900895F62E0B8D10E00F5F1F4F78
:100550000F731127E02E8C8D8E110BC00FB607FC88
:10056000FACFE889F989808185FFF5CFCE01A2DF36
:10057000F2CFEB8DEC0FFD2FF11DE35AFF4FF08210
:100580009FB7F8940B8FEA89FB8980818062D0CF76
:10059000CF93DF93EC01888D8823B1F0AA89BB89C2
:1005A000E889F9898C9185FD03C0808186FD0CC0A6
:1005B0000FB607FCF7CF8C9185FFF2CF808185FFC6
:1005C000EDCFCE0177DFEACFDF91CF91089580E0C4
:1005D00090E0892B21F065DF81110E94000080E00E
:1005E00090E0892B49F080E090E0892B29F00E946F
:1005F000000081110E94000080E090E0892B49F00A
:1006000080E090E0892B29F00E94000081110E9477
:10061000000080E090E0892B49F080E090E0892B99
:1006200029F00E94000081110C9400000895FC0143
:1006300001900020E9F73197AF01481B590BBC012D
:100640008EE392E0C4CE8F929F92AF92BF920F93AF
:100650001F93CF93DF93CDB7DEB7A1970FB6F89472
:10066000DEBF0FBECDBF19A2423008F44AE08E01B2
:100670000F5D1F4F842E912CB12CA12CA50194014C
:1006800082D2E62FB901CA01EA30ECF4E05DD8016C
:10069000EE938D01232B242B252B81F790E080E016
:1006A000109711F0CD01C3DFA1960FB6F894DEBF0D
:1006B0000FBECDBFDF91CF911F910F91BF90AF9033
:1006C0009F908F900895E95CE2CFCF92DF92EF92F6
:1006D000FF92CF93DF936B017C016DE28EE392E09A
:1006E0000BDFEC0166277727CB016C197D098E099A
:1006F0009F094AE0A8DF8C0F9D1FDF91CF91FF90EB
:10070000EF90DF90CF9008951F920F920FB60F9247
:1007100011242F933F938F939F93AF93BF93809117
:10072000360290913702A0913802B091390230918F
:10073000350223E0230F2D3758F50196A11DB11D79
:10074000209335028093360290933702A0933802AB
:10075000B093390280913A0290913B02A0913C0201
:10076000B0913D020196A11DB11D80933A02909374
:100770003B02A0933C02B0933D02BF91AF919F9189
:100780008F913F912F910F900FBE0F901F90189552
:1007900026E8230F0296A11DB11DD2CF1F920F9202
:1007A0000FB60F9211240BB60F922F933F934F93D6
:1007B0005F936F937F938F939F93AF93BF93EF93C9
:1007C000FF938EE392E076DEFF91EF91BF91AF91C0
:1007D0009F918F917F916F915F914F913F912F9159
:1007E0000F900BBE0F900FBE0F901F9018951F9289
:1007F0000F920FB60F9211240BB60F922F938F9377
:100800009F93EF93FF93E0914E02F0914F0280810E
:10081000E0915402F091550282FD1DC090818091BB
:1008200057028F5F8F7320915802821741F0E09139
:100830005702F0E0E25CFD4F958F80935702FF91E5
:10084000EF919F918F912F910F900BBE0F900FBE44
:100850000F901F9018958081F2CF789484B58260B4
:1008600084BD84B5816084BD85B5826085BD85B554
:10087000816085BD80916E00816080936E001092D2
:10088000810080918100826080938100809181004D
:1008900081608093810080918000816080938000DE
:1008A0008091B10084608093B1008091B00081603C
:1008B0008093B0008091910082608093910080913C
:1008C000910081608093910080919000816080937D
:1008D00090008091A10082608093A1008091A1008E
:1008E00081608093A1008091A00081608093A0002E
:1008F000809121018260809321018091210181609A
:10090000809321018091200181608093200180915A
:100910007A00846080937A0080917A00826080936C
:100920007A0080917A00816080937A0080917A00C9
:10093000806880937A001092C100CFE7D1E0FE0179
:10094000249109E311E0F80184918823C9F090E033
:10095000880F991FFC01EC51FF4FA591B491FC0148
:10096000E85EFE4F459154913FB7F8949C91822FD9
:10097000809598239C93FA019081892380833FBFBF
:10098000E5E8F1E02491EFE3F1E08491882399F028
:1009900090E0880F991FFC01EC51FF4FA591B49195
:1009A000FC01E85EFE4F859194918FB7F894EC912D
:1009B000E22BEC938FBFE0914E02F0914F0282E068
:1009C0008083E0914A02F0914B021082E0914C0248
:1009D000F0914D028FEC808310925602E09152020A
:1009E000F091530286E08083E0915002F091510231
:1009F000808180618083E0915002F091510280817A
:100A000088608083E0915002F0915102808180687B
:100A10008083E0915002F091510280818F7D80832C
:100A200020E4C22E35ECE32E31E0F32E80917B00E2
:100A3000877F80937B00C0927C0080917A008064E5
:100A400080937A0080917A0086FDFCCF80917800B7
:100A5000909179009093340280933302F70184914E
:100A6000FE01B490F801D490DD2071F08111FADB21
:100A7000ED2DF0E0EE0FFF1FE250FF4FA591B49176
:100A80008C91B82281E009F480E081708093320279
:100A900082E192E0CCDD6091330270913402072E46
:100AA000000C880B990B97FF3CC00FDE80E292E0B0
:100AB000BEDD83E292E0BBDD6091320270E090E047
:100AC00080E04AE0C0DD80E292E0B1DD8091320258
:100AD000882351F180E02CDC55DC2B013C0188EEB1
:100AE000882E83E0982EA12CB12C4CDC641975095A
:100AF00086099709683E734081059105B0F3F1E0DE
:100B00008F1A9108A108B10828EE420E23E0521E68
:100B1000611C711C81149104A104B10431F757DDEB
:100B200085CF4AE090DDC2CF81E0D5CFEEE3F2E0A1
:100B30001382128288EE93E0A0E0B0E08483958374
:100B4000A683B78384E092E09183808385EC90E074
:100B50009587848784EC90E09787868780EC90E087
:100B6000918B808B81EC90E0938B828B82EC90E078
:100B7000958B848B86EC90E0978B868B118E128EF2
:100B8000138E148E0895A1E21A2EAA1BBB1BFD0121
:100B90000DC0AA1FBB1FEE1FFF1FA217B307E4075C
:100BA000F50720F0A21BB30BE40BF50B661F771FB4
:100BB000881F991F1A9469F7609570958095909594
:100BC0009B01AC01BD01CF010895EE0FFF1F881FEF
:0E0BD0008BBF0790F691E02D1994F894FFCF9B
:100BDE00000000007C02E7011402C8024502230255
:100BEE00370253656E736F722056616C7565200007
:100BFE000D0A004469676974616C2056616C7565F5
:020C0E002000C4
:00000001FF
